:100000000C9434000C9446000C9446000C9446006A
:100010000C9446000C9446000C9446000C94460048
:100020000C9446000C9446000C9446000C94460038
:100030000C9446000C9446000C9446000C94460028
:100040000C9446000C9446000C94F0000C9446006E
:100050000C9446000C9446000C9446000C94460008
:100060000C9446000C94460011241FBECFEFD8E03C
:10007000DEBFCDBF21E0A0E0B1E001C01D92A13004
:10008000B207E1F70E9448000C94D1030C940000E1
:100090000E94B7000E9451008FEC90E00E941F0266
:1000A000FFCFE0E8F0E08081816080838081806A1A
:1000B0008083E1E8F0E08081856080830895CF93BC
:1000C000811103C028982C9809C0813019F4289810
:1000D0002C9A04C0823011F42C98289ACFB7F89447
:1000E00070E080E090E00E94D60220E030E04FE730
:1000F00053E40E94350220E030E046E153E40E94E0
:1001000064030E94A70270E07093890060938800E6
:10011000CFBFCF910895CF93811103C040984198EC
:1001200009C0823019F44198409A04C0813011F41A
:100130004098419ACFB7F89470E080E090E00E9438
:10014000D60220E030E04FE753E40E94350220E081
:1001500030E046E153E40E9464030E94A70270E08D
:1001600070938B0060938A00CFBFCF910895219A3E
:10017000229A209A249A389A399A529853985498E5
:100180005598259A08956FEF81E00E945F0068EC12
:1001900082E00E948B00089568EC81E00E945F007D
:1001A0006FEF82E00E948B0008956FEF82E00E9463
:1001B0005F006FEF82E00E948B00089568EC81E0A1
:1001C0000E945F0068EC81E00E948B00089561E06E
:1001D00080E00E945F0061E080E00E948B00089553
:1001E0001F920F920FB60F9211242F933F934F93AC
:1001F0005F936F937F938F939F93AF93BF93EF938F
:10020000FF938091C60080930001809100018134AA
:1002100019F40E94D50002C180910001833519F4C0
:100220000E94DE00FBC080910001843471F40E94C2
:10023000CC002FE744E55DE0215040405040E1F71D
:1002400000C000000E94E700E9C0809100018634F0
:1002500071F40E94C3008FEF9BEA2DE08150904023
:100260002040E1F700C000000E94E700D7C0809165
:100270000001873419F40E94E700D0C0809100018A
:10028000883471F40E94C3004FE757E986E041507B
:1002900050408040E1F700C000000E94E700BEC06F
:1002A00080910001823471F40E94CC009FE727E91D
:1002B00046E0915020404040E1F700C000000E941D
:1002C000E700ACC080910001833419F40E94C300A0
:1002D000A5C0809100018534C9F40E94D5005FEF6C
:1002E00087E59BE1515080409040E1F700C000005D
:1002F0000E94DE002FEF41E55CE12150404050407C
:10030000E1F700C000000E94E70088C08091000172
:10031000893499F426E030E098E085B1892785B9E1
:100320008FEF41EE54E0815040405040E1F700C073
:1003300000002150310989F771C080910001813698
:1003400009F045C00E94CC008FE797E926E0815074
:1003500090402040E1F700C000000E94D5004FEF20
:1003600057E58BE1415050408040E1F700C000006C
:100370000E94C3009FEF2BEA4DE091502040404087
:10038000E1F700C000000E94D5005FEF8BEA9DE01E
:10039000515080409040E1F700C000000E94C3002F
:1003A0002FEF4BEA5DE0215040405040E1F700C0A4
:1003B00000000E94D5008FEF9BEA2DE08150904015
:1003C0002040E1F700C000000E94E70027C08091B4
:1003D0000001823619F50E94CC004FE757E986E00C
:1003E000415050408040E1F700C000000E94D5001D
:1003F0009FEF27E843E1915020404040E1F700C0E3
:1004000000000E94C3005FEF82E597E051508040FA
:100410009040E1F700C000000E94E700FF91EF91DB
:10042000BF91AF919F918F917F916F915F914F910C
:100430003F912F910F900FBE0F901F901895E2ECF7
:10044000F0E02081108222E02093C0009093C5004C
:100450008093C40086E08083E1ECF0E088E1808353
:10046000789480818068808308950E9449020C946A
:100470002A030E94230358F00E941C0340F029F431
:100480005F3F29F00C94130351110C945E030C94FC
:1004900019030E943B0368F39923B1F3552391F3A9
:1004A000951B550BBB27AA2762177307840738F0E3
:1004B0009F5F5F4F220F331F441FAA1FA9F335D040
:1004C0000E2E3AF0E0E832D091505040E695001CF4
:1004D000CAF72BD0FE2F29D0660F771F881FBB1FAE
:1004E000261737074807AB07B0E809F0BB0B802D8C
:1004F000BF01FF2793585F4F3AF09E3F510578F0B8
:100500000C9413030C945E035F3FE4F3983ED4F322
:10051000869577956795B795F7959F5FC9F7880F8B
:10052000911D9695879597F90895E1E0660F771FDD
:10053000881FBB1F621773078407BA0720F0621B6E
:10054000730B840BBA0BEE1F88F7E09508950E9499
:10055000430388F09F5798F0B92F9927B751B0F00F
:10056000E1F0660F771F881F991F1AF0BA95C9F737
:1005700014C0B13091F00E945D03B1E008950C9475
:100580005D03672F782F8827B85F39F0B93FCCF328
:10059000869577956795B395D9F73EF490958095B4
:1005A000709561957F4F8F4F9F4F0895E89409C0D4
:1005B00097FB3EF490958095709561957F4F8F4F96
:1005C0009F4F9923A9F0F92F96E9BB279395F695AC
:1005D000879577956795B795F111F8CFFAF4BB0F2A
:1005E00011F460FF1BC06F5F7F4F8F4F9F4F16C08E
:1005F000882311F096E911C0772321F09EE8872F18
:10060000762F05C0662371F096E8862F70E060E0D3
:100610002AF09A95660F771F881FDAF7880F96954C
:10062000879597F9089597F99F6780E870E060E0F3
:1006300008959FEF80EC089500240A94161617067B
:1006400018060906089500240A94121613061406C3
:1006500005060895092E0394000C11F4882352F026
:10066000BB0F40F4BF2B11F460FF04C06F5F7F4FDE
:100670008F4F9F4F089557FD9058440F551F59F0C5
:100680005F3F71F04795880F97FB991F61F09F3F7F
:1006900079F087950895121613061406551FF2CFA8
:1006A0004695F1DF08C0161617061806991FF1CFF8
:1006B00086957105610508940895E894BB2766271F
:1006C0007727CB0197F908950E9477030C942A03AA
:1006D0000E941C0338F00E94230320F0952311F0A0
:1006E0000C9413030C94190311240C945E030E94C0
:1006F0003B0370F3959FC1F3950F50E0551F629F28
:10070000F001729FBB27F00DB11D639FAA27F00D6A
:10071000B11DAA1F649F6627B00DA11D661F829F91
:100720002227B00DA11D621F739FB00DA11D621F76
:10073000839FA00D611D221F749F3327A00D611D93
:10074000231F849F600D211D822F762F6A2F112475
:100750009F5750409AF0F1F088234AF0EE0FFF1FA8
:10076000BB1F661F771F881F91505040A9F79E3FFF
:10077000510580F00C9413030C945E035F3FE4F387
:10078000983ED4F3869577956795B795F795E79555
:100790009F5FC1F7FE2B880F911D9695879597F95E
:0607A0000895F894FFCF5C
:00000001FF
