:100000000C9434000C9446000C9446000C9446006A
:100010000C9446000C9446000C9446000C94460048
:100020000C9446000C9446000C9446000C94460038
:100030000C9446000C9446000C9446000C94460028
:100040000C9446000C9446000C9490030C944600CB
:100050000C9446000C9446000C9446000C94460008
:100060000C9446000C94460011241FBECFEFD8E03C
:10007000DEBFCDBF21E0A0E0B1E001C01D92AF30F6
:10008000B207E1F70E9448000C945B060C94000054
:100090000E9454030E94EE0201E0102FC1E0D0E064
:1000A00089B1847090E090930D0180930C0189B127
:1000B000807290E090930B0180930A0189B188705F
:1000C00090E0909309018093080189B1807190E0DC
:1000D000909307018093060189B1802781708093F6
:1000E00004011092050189B1807490E0909303019E
:1000F0008093020189B1807890E090930101809310
:1001000000014A9B09C06AEA812F0E94FC026EE14D
:1001100082E00E94280308C04B9B03C00E94630337
:1001200003C04C990E946C034D9B0EC06EE1812F61
:100130000E94FC026AEA82E00E9428038FE39CE9A5
:100140000197F1F700C0000080910A0190910B0126
:10015000019741F58091060190910701019711F5F2
:1001600080910801909109010197A1F46EE1812F1E
:100170000E94FC026AEA82E00E94280380910A0140
:1001800090910B01019771F4809106019091070104
:10019000019741F46EE1812F0E94FC026AEA82E03D
:1001A0000E942803489904C10E947E039FEF29E61C
:1001B00088E1915020408040E1F700C000009FEFAF
:1001C00024E38CE0915020408040E1F700C0000023
:1001D0000E9487039FEF29E688E1915020408040EC
:1001E000E1F700C000009FEF29E688E19150204030
:1001F0008040E1F700C000009FEF29E688E19150C0
:1002000020408040E1F700C0000061EE812F0E9495
:10021000FC0269E182E00E9428039FEF29E688E161
:10022000915020408040E1F700C000000E94870309
:100230009FEF29E688E1915020408040E1F700C01F
:1002400000009FEF29E688E1915020408040E1F7CF
:1002500000C000009FEF29E688E1915020408040D7
:10026000E1F700C000000E9475039FEF29E688E1D6
:10027000915020408040E1F700C000009FEF29E648
:1002800088E1915020408040E1F700C000000E94CA
:1002900087039FEF29E688E1915020408040E1F7F5
:1002A00000C0000069E1812F0E94FC0261EE82E043
:1002B0000E9428039FEF29E688E19150204080406A
:1002C000E1F700C000000E9487039FEF29E688E164
:1002D000915020408040E1F700C000009FEF29E6E8
:1002E00088E1915020408040E1F700C000009FEF7E
:1002F00029E688E1915020408040E1F700C00000ED
:100300000E9475039FEF29E688E1915020408040CC
:10031000E1F700C000009FEF29E688E191502040FE
:100320008040E1F700C000000E9487039FEF29E6AC
:1003300088E1915020408040E1F700C000009FEF2D
:1003400029E688E1915020408040E1F700C000009C
:100350006CE1812F0E94FC0261EE82E00E94280382
:100360009FEF29E688E1915020408040E1F700C0EE
:1003700000000E9487039FEF29E688E1915020400A
:100380008040E1F700C000009FEF29E688E191502E
:1003900020408040E1F700C000009FEF29E688E19F
:1003A000915020408040E1F700C000000E9475039A
:1003B0008091040190910501019709F071CE80911F
:1003C0000C0190910D01019721F0D0930B01C09386
:1003D0000A010E947E039FEF29E688E191502040A8
:1003E0008040E1F700C000009FEF24E38CE09150D3
:1003F00020408040E1F700C000000E9487039FEF8B
:1004000029E688E1915020408040E1F700C00000DB
:100410009FEF29E688E1915020408040E1F700C03D
:1004200000009FEF29E688E1915020408040E1F7ED
:1004300000C0000061EE802F0E94FC0269E182E0B2
:100440000E9428039FEF29E688E1915020408040D8
:10045000E1F700C000000E9487039FEF29E688E1D2
:10046000915020408040E1F700C000009FEF29E656
:1004700088E1915020408040E1F700C000009FEFEC
:1004800029E688E1915020408040E1F700C000005B
:100490000E9475039FEF29E688E19150204080403B
:1004A000E1F700C000009FEF29E688E1915020406D
:1004B0008040E1F700C000000E9487039FEF29E61B
:1004C00088E1915020408040E1F700C0000069E1E0
:1004D000802F0E94FC0261EE82E00E9428039FEFC1
:1004E00029E688E1915020408040E1F700C00000FB
:1004F0000E9487039FEF29E688E1915020408040C9
:10050000E1F700C000009FEF29E688E1915020400C
:100510008040E1F700C000009FEF29E688E191509C
:1005200020408040E1F700C000000E9475039FEF6B
:1005300029E688E1915020408040E1F700C00000AA
:100540009FEF29E688E1915020408040E1F700C00C
:1005500000000E9487039FEF29E688E19150204028
:100560008040E1F700C000009FEF29E688E191504C
:1005700020408040E1F700C000006CE1802F0E9425
:10058000FC0261EE82E00E9428039FEF29E688E1E9
:10059000915020408040E1F700C000000E94870396
:1005A0009FEF29E688E1915020408040E1F700C0AC
:1005B00000009FEF29E688E1915020408040E1F75C
:1005C00000C000009FEF29E688E191502040804064
:1005D000E1F700C000000E94750362CDE0E8F0E0A2
:1005E0008081816080838081806A8083E1E8F0E09F
:1005F0008081856080830895CF93811103C02898FE
:100600002C9809C0813019F428982C9A04C08230A3
:1006100011F42C98289ACFB7F89470E080E090E01D
:100620000E94600520E030E04FE753E40E94BF04E1
:1006300020E030E046E153E40E94EE050E943105DF
:1006400070E07093890060938800CFBFCF910895C8
:10065000CF93811103C04098419809C0823019F4AA
:100660004198409A04C0813011F44098419ACFB724
:10067000F89470E080E090E00E94600520E030E0B7
:100680004FE753E40E94BF0420E030E046E153E42A
:100690000E94EE050E94310570E070938B0060931C
:1006A0008A00CFBFCF910895219A229A209A249A46
:1006B000389A399A5298539854985598569857980A
:1006C0005098259A08956AE581E00E94FC0266E44C
:1006D00082E00E942803089566E481E00E94FC0203
:1006E0006AE582E00E942803089564E681E00E94A2
:1006F000FC0264E682E00E942803089564E682E03A
:100700000E94FC0264E681E00E942803089561E0F3
:1007100080E00E94FC0261E080E00E9428030895CE
:100720001F920F920FB60F9211242F933F934F9366
:100730005F936F937F938F939F93AF93BF93EF9349
:10074000FF938091C60080930E0180910E01813449
:1007500019F40E94750302C180910E01833519F4CA
:100760000E947E03FBC080910E01843471F40E94CC
:100770006C032FE744E55DE0215040405040E1F735
:1007800000C000000E948703E9C080910E018634FA
:1007900071F40E9463038FEF9BEA2DE0815090403B
:1007A0002040E1F700C000000E948703D7C080917D
:1007B0000E01873419F40E948703D0C080910E0186
:1007C000883471F40E9463034FE757E986E0415093
:1007D00050408040E1F700C000000E948703BEC087
:1007E00080910E01823471F40E946C039FE727E927
:1007F00046E0915020404040E1F700C000000E94D8
:100800008703ACC080910E01833419F40E94630306
:10081000A5C080910E018534C9F40E9475035FEF75
:1008200087E59BE1515080409040E1F700C0000017
:100830000E947E032FEF41E55CE121504040504093
:10084000E1F700C000000E94870388C080910E017C
:10085000893499F426E030E098E085B1892785B99C
:100860008FEF41EE54E0815040405040E1F700C02E
:1008700000002150310989F771C080910E01813645
:1008800009F045C00E946C038FE797E926E081508C
:1008900090402040E1F700C000000E9475034FEF38
:1008A00057E58BE1415050408040E1F700C0000027
:1008B0000E9463039FEF2BEA4DE09150204040409F
:1008C000E1F700C000000E9475035FEF8BEA9DE036
:1008D000515080409040E1F700C000000E94630347
:1008E0002FEF4BEA5DE0215040405040E1F700C05F
:1008F00000000E9475038FEF9BEA2DE0815090402D
:100900002040E1F700C000000E94870327C08091CB
:100910000E01823619F50E946C034FE757E986E015
:10092000415050408040E1F700C000000E94750334
:100930009FEF27E843E1915020404040E1F700C09D
:1009400000000E9463035FEF82E597E05150804012
:100950009040E1F700C000000E948703FF91EF91F3
:10096000BF91AF919F918F917F916F915F914F91C7
:100970003F912F910F900FBE0F901F9018950E94DE
:10098000D3040C94B4050E94AD0558F00E94A6054E
:1009900040F029F45F3F29F00C949D0551110C940F
:1009A000E8050C94A3050E94C50568F39923B1F3EB
:1009B000552391F3951B550BBB27AA276217730785
:1009C000840738F09F5F5F4F220F331F441FAA1F19
:1009D000A9F335D00E2E3AF0E0E832D091505040D5
:1009E000E695001CCAF72BD0FE2F29D0660F771F83
:1009F000881FBB1F261737074807AB07B0E809F069
:100A0000BB0B802DBF01FF2793585F4F3AF09E3FED
:100A1000510578F00C949D050C94E8055F3FE4F3D4
:100A2000983ED4F3869577956795B795F7959F5F30
:100A3000C9F7880F911D9695879597F90895E1E07C
:100A4000660F771F881FBB1F621773078407BA07DB
:100A500020F0621B730B840BBA0BEE1F88F7E09536
:100A600008950E94CD0588F09F5798F0B92F9927D7
:100A7000B751B0F0E1F0660F771F881F991F1AF089
:100A8000BA95C9F714C0B13091F00E94E705B1E002
:100A900008950C94E705672F782F8827B85F39F001
:100AA000B93FCCF3869577956795B395D9F73EF422
:100AB00090958095709561957F4F8F4F9F4F0895CA
:100AC000E89409C097FB3EF49095809570956195E8
:100AD0007F4F8F4F9F4F9923A9F0F92F96E9BB279E
:100AE0009395F695879577956795B795F111F8CF1A
:100AF000FAF4BB0F11F460FF1BC06F5F7F4F8F4F85
:100B00009F4F16C0882311F096E911C0772321F07A
:100B10009EE8872F762F05C0662371F096E8862F12
:100B200070E060E02AF09A95660F771F881FDAF769
:100B3000880F9695879597F9089597F99F6780E8AC
:100B400070E060E008959FEF80EC089500240A941F
:100B50001616170618060906089500240A94121698
:100B60001306140605060895092E0394000C11F4CB
:100B7000882352F0BB0F40F4BF2B11F460FF04C078
:100B80006F5F7F4F8F4F9F4F089557FD9058440FD1
:100B9000551F59F05F3F71F04795880F97FB991FDC
:100BA00061F09F3F79F08795089512161306140699
:100BB000551FF2CF4695F1DF08C016161706180626
:100BC000991FF1CF86957105610508940895E89401
:100BD000BB2766277727CB0197F908950E94010666
:100BE0000C94B4050E94A60538F00E94AD0520F0D3
:100BF000952311F00C949D050C94A30511240C94DD
:100C0000E8050E94C50570F3959FC1F3950F50E06C
:100C1000551F629FF001729FBB27F00DB11D639FAE
:100C2000AA27F00DB11DAA1F649F6627B00DA11D54
:100C3000661F829F2227B00DA11D621F739FB00DFA
:100C4000A11D621F839FA00D611D221F749F33276A
:100C5000A00D611D231F849F600D211D822F762F03
:100C60006A2F11249F5750409AF0F1F088234AF0E0
:100C7000EE0FFF1FBB1F661F771F881F915050404C
:100C8000A9F79E3F510580F00C949D050C94E80552
:100C90005F3FE4F3983ED4F3869577956795B795D3
:100CA000F795E7959F5FC1F7FE2B880F911D9695ED
:0A0CB000879597F90895F894FFCF97
:00000001FF
